:020000040800F2
:10000000C81600204101000829220008331D0008FD
:1000100000000000000000000000000000000000E0
:10002000000000000000000000000000A522000801
:100030000000000000000000FF0000082925000863
:10004000530100080000000053010008530100089C
:100050005301000853010008530100085301000830
:10006000000000005301000853010008530100087C
:10007000530100085301000853010008000000006C
:10008000530100084D26000800000000530100083D
:1000900053010008530100085301000853010008F0
:1000A00053010008530100085301000853010008E0
:1000B000530100080348854600F036FB004800471E
:1000C0007D360008C8160020084B196808682030E3
:1000D00080F30988022080F31488BFF36F8F3FBC40
:1000E000AE4608BC04BC62B6184700007800002089
:1000F000EFF3108072B6704780F310887047EFF30B
:1001000009800E4B1A6820381060F0C044464D46F6
:1001100056465F46F0C008B572B604F049F862B6BC
:100120000CBC116808681030F0C8A046A946B24659
:10013000BB4680F309882038F0C8184778000020B3
:100140000448804704480047FEE7FEE7FEE7FEE775
:10015000FEE7FEE7D9250008B500000830B50B46DC
:10016000014600202022012409E00D46D5409D4291
:1001700005D31D469540491B254695404019154617
:10018000521E002DF1DC30BD70B50024254600283C
:1001900001DA01244042002901DA01254942FFF732
:1001A000DDFFAC4200D04042002C00D0494270BD7F
:1001B00010B5202A04DB0846203AD040002110BDAB
:1001C0000B46D340D0402024A21A91400843194640
:1001D00010BD03460B439B0703D009E008C9121F5B
:1001E00008C0042AFAD203E00B780370401C491CB3
:1001F000521EF9D27047D2B201E00270401C491E73
:10020000FBD270470022F6E710B513460A460446B3
:100210001946FFF7F0FF204610BD0000F0B5074675
:100220000846584087B0C00F049048000E46590059
:1002300040084908BC1A884105D2384631461E4656
:1002400017460B4602465800400810434CD0300D6C
:10025000039040055900400D490D0590401A029049
:10026000402872DA18030121000B090508430190A8
:1002700004980092002805D001995242002088413C
:1002800000920190029840210A1A0199009800F00A
:1002900041F905460C466B4607CB00F04BF9C019F7
:1002A0007141039A0E0D0023D71756401A467A4023
:1002B000164344D0049A002A2DD0029A012A039AA8
:1002C00015DC1205C01A914101263605001C71414A
:1002D000D20F059ED2070093019202962A4623462A
:1002E00000F048F907B0F0BD38463146FAE7160588
:1002F000224A0F46B218C01AB74101210905001C55
:100300004F4100187F41114618187941E20F104300
:100310006D19644113E0E2076D0815436408C207D4
:100320001443039A01261205C01A91413605001C98
:100330007141CE07400830434908C01851412A4650
:10034000234600F00AF9CDE7FFE7049801224000B8
:10035000C117121A00238B4104983146C417381A6A
:10036000A141EEE730B40124E407634030BC55E717
:1003700030B40124E407614030BC4FE70000E0FFE7
:10038000F0B50C465C4085B0E40FE40703944C00E4
:100390000026640859009446490802460296224302
:1003A00021D062460A431ED06200570D4A000E0358
:1003B0002303550D012402462C492405781B1B0BF1
:1003C000360B401823432643614600901C46501AC2
:1003D000B44103D30098401C009002E092180098AA
:1003E0005B41002803DA0020014605B0F0BD002083
:1003F000012109050746864611E064461D46141B87
:10040000B54106D36546521BB341744607430C43BE
:10041000A646CD0740084908284392185B41054687
:100420000D43EAD11046184313D060461946504098
:100430007140084306D06046101AB34106D201222B
:10044000002306E000220123DB0702E00122D24361
:100450005310009874460105381C6141029C039DAD
:100460000019694100F079F8BFE70000FD030000C2
:100470000EB505490291002100910A460B460191F3
:1004800000F078F803B000BD3304000010B5002977
:1004900004DB0124E40740428C412146002B04DBAD
:1004A0001C460123DB075242A341994200D19042EE
:1004B00010BD0000F0B51FB40646002082B005460E
:1004C0004024019100901BE0019922460F463046DE
:1004D000FFF76EFE049A059B801A994110D31046CF
:1004E0001946224600F016F8361A8F410197224627
:1004F00001200021009F00F00DF838184D410090B8
:100500002046641E0028DFDC019B00982946324605
:1005100007B0F0BD10B5202A04DB0146203A914017
:10052000002010BD914020239C1A0346E34019434C
:10053000904010BD10B5202A06DBCB170846203AA4
:100540001041C1170B4306E00B461341D040202455
:10055000A21A91400843194610BD10B5002B08DAC5
:100560000024401C614192185B411A4301D14008AC
:10057000400010BDF0B51FB482B005460C0003D09A
:10058000084602F0D1F802E002F0CEF82030024630
:10059000009021462846FFF7BDFF049B059A0446BC
:1005A0000F4618431143084314D0184610431BD07C
:1005B000009840210A1A18460599FFF7F9FD0546EB
:1005C0000E46009A05990498FFF7A4FF084305D04A
:1005D000012004E02046394607B0F0BD0020C117D5
:1005E00005430E432C43374300990E986305401A88
:1005F0007905E40A00220C43FD0A0A3002D50020E6
:100600000146E9E70105101969410C9C0D9D00198F
:100610006941FFF7A2FFDFE7F0B51FB488B00B997F
:100620000998002448400999C00F490049080991D8
:10063000C0070B990090490049080B910999089847
:10064000A64608431CD00B990A98084318D009986D
:1006500001244000420D4800410D09982405000383
:10066000000B204309900B980003000B20430B90D4
:1006700050181C494018002201901446104605E00D
:10068000002001460DB0F0BD032801DA034600E06A
:1006900003239C46C11A0AAE0AE05F0008ADED5B79
:1006A0004F00F75B7D430027AA187C41491C5B1E65
:1006B0006145F2DD410004AB5A522104120C0A4399
:1006C000240C401C0828DFDB01980290009970463A
:1006D00001910090059B049A07990698FFF74AFF3D
:1006E000D0E700000DFCFFFF4A0009030123090BBE
:1006F0001B0519430A4B10B5520D9A4202DA00202D
:10070000014610BD064B34339A4203DC9A1AFFF7B8
:100710004FFD10BD034BD218FFF7FCFE10BD0000CB
:10072000FF030000CDFBFFFF064C0125064E05E050
:10073000E36807CC2B430C3C98471034B442F7D302
:10074000FFF7BCFC846D0008A46D0008FFB583B002
:10075000044615461E460027642001230196009595
:10076000029021460348049A00F01AFA384607B06E
:10077000F0BD000000010020FFB583B0044615461F
:100780001E46002764200123019600950290214611
:100790000348049A00F0E6FA384607B0F0BD0000BE
:1007A0000001002010B50446204602F08CFF10BD69
:1007B00031B500F015F90546009C601C002800D0FA
:1007C000641C00BF00F00CF9401BA042FAD338BDF6
:1007D00078B50346002200240020DEE00126964082
:1007E0000D6835402C46002C7ED04D68022D02D07D
:1007F0004D68122D15D1D508AE001D462035A859DB
:100800005507EE0E0F25B5400646AE433046560757
:10081000F60E0D69B5402843D508AD001E462036BA
:100820007051186856000325B5400646AE43304661
:100830000D79AD07AD0F5600B540284318604D68DF
:10084000012D08D04D68022D05D04D68112D02D024
:100850004D68122D18D1986856000325B5400646FC
:10086000AE4330465600CD68B5402843986058687E
:10087000012595400646AE43304610264D6835406A
:100880002D09954028435860D86856000325B54087
:100890000646AE43304656008D68B5402843D860C2
:1008A000012636074D683540B54275D100BF3E4D33
:1008B000AD69012635433C4EB5613546AD69ED075E
:1008C000ED0F009500BF00BF384D9608B600A8593F
:1008D00095072E0F0F25B5400646AE433046092535
:1008E000ED06AB4203D100E056E000250FE0304DAD
:1008F000AB4201D101250AE02E4DAB4201D10225C8
:1009000005E02D4DAB4201D1032500E005259607FA
:10091000360FB5402843254D9608B600A851274DFF
:1009200028680546A5432846012636044D6835400B
:10093000B54202D1054625432846204D2860686807
:100940000546A5432846012676044D683540B54244
:1009500002D1054625432846184D6860A86805461B
:10096000A5432846012636054D683540B54202D1DB
:10097000054625432846114DA860E8680546A5436D
:100980002846012676054D683540B54202D1054618
:1009900025432846094DE860521C0D68D540002DBE
:1009A00000D01BE778BD00000010024008000140A5
:1009B0000004004800080048000C00480004014002
:1009C000024613690B40002B01D0012000E00020FB
:1009D0007047002A01D0816100E081627047000009
:1009E0000148006870470000540000200246412082
:1009F000805C20282FD100BF4020805C012801D1DD
:100A00000220704701234020835400BF242341204B
:100A1000835410680068400840001368186010682C
:100A2000006801231B03984313681860106800686E
:100A3000084313681860106800680123184313689E
:100A4000186020234120835400BF0023402083549A
:100A500000BF0020D5E70220D3E710B502460B46C1
:100A600000214120805C20282ED100BF4020805CE6
:100A7000012801D1022010BD01244020845400BF70
:100A80002424412084541068006840084000146801
:100A90002060106801680F2424020846A043014624
:100AA00018020143106801601068006801242043A7
:100AB0001468206020244120845400BF002440207A
:100AC000845400BF0020D6E70220D4E710B50446C6
:100AD000002C01D1012010BD4120005D002805D16E
:100AE000002140200155204600F01EFA242141201B
:100AF00001552068006840084000216808600F2107
:100B000009066068884321680861206880680121BF
:100B1000C903884321688860E068012806D1012163
:100B2000C903A06808432168886005E02121890283
:100B3000A068084321688860E068022802D180022A
:100B4000216848602068406814490843216848606B
:100B50002068C0680121C90388432168C8606169B1
:100B600020690843A169090208432168C860216A15
:100B7000E069084321680860206800680121084393
:100B80002168086000206064202141200155002078
:100B9000206300214220015500209CE700800002D4
:100BA000FFB583B004460C9F0E9E00254120005DDA
:100BB000202871D1002F02D00D98002802D10120E9
:100BC00007B0F0BD00BF4020005D012801D1022028
:100BD000F6E701214020015500BFFFF701FF054660
:100BE00019230122D1032046009501F0B1F9002814
:100BF00001D00320E4E72221412001554021422079
:100C000001550020606467620D9860850020606374
:100C100000960195204604A90EC901F0EFF80028BE
:100C200010D0606C042806D100BF0021402001557F
:100C300000BF0120C4E700BF00214020015500BFD4
:100C40000320BDE7608DFF280DD9FF2020850920F6
:100C500080020090208DC2B201231B062046049919
:100C600001F05EF90CE0608D208509208002009083
:100C7000208DC2B201235B062046049901F050F991
:100C800000BF3346002204212046009501F060F9A0
:100C9000002802D0032093E75FE02068406AC1B2D9
:100CA000626A501C60621170208D401E2085608D2C
:100CB000401E6085208D002829D1608D002826D017
:100CC0003346002280212046009501F041F900289A
:100CD00001D0032074E7608DFF280CD9FF20208508
:100CE00000200090208DC2B201231B0620460499EB
:100CF00001F016F90BE0608D208500200090208D1A
:100D0000C2B201235B062046049901F009F9608D07
:100D10000028B6D12A463146204601F042F9002883
:100D200006D0606C042801D1012049E7032047E781
:100D300020202168C861206840680949084021686E
:100D4000486020214120015500214220015500BF6B
:100D50004020015500BF002032E7022030E70000AC
:100D600000E800FEFFB583B004460C9F0E9E0025F0
:100D70004120005D202870D1002F02D00D9800285E
:100D800002D1012007B0F0BD00BF4020005D012866
:100D900001D10220F6E701214020015500BFFFF7F5
:100DA0001FFE054619230122D1032046009501F0BC
:100DB000CFF8002801D00320E4E72121412001558C
:100DC0004021422001550020606467620D986085D3
:100DD0000020606300960195204604A90EC901F029
:100DE00056F8002810D0606C042806D100BF0021FE
:100DF0004020015500BF0120C4E700BF0021402072
:100E0000015500BF0320BDE7608DFF280CD9FF20EE
:100E1000208500200090208DC2B201231B062046B1
:100E2000049901F07DF80BE0608D20850020009092
:100E3000208DC2B201235B062046049901F070F8B0
:100E400000BF2A463146204601F0D8F8002807D0D6
:100E5000606C042802D1012094E760E0032091E750
:100E6000616A481C6062087821688862608D401E53
:100E70006085208D401E2085208D002829D1608D21
:100E8000002826D03346002280212046009501F01C
:100E90005FF8002801D0032074E7608DFF280CD98B
:100EA000FF20208500200090208DC2B201231B0668
:100EB0002046049901F034F80BE0608D2085002075
:100EC0000090208DC2B201235B062046049901F0F8
:100ED00027F8608D0028B4D12A463146204601F01B
:100EE00060F8002806D0606C042801D1012049E791
:100EF000032047E720202168C8612068406809492D
:100F000008402168486020214120015500214220ED
:100F1000015500BF4020015500BF002032E70220EC
:100F200030E7000000E800FE10B586B004462B490B
:100F3000206888422DD100BF2948C0690121490598
:100F400008432749C8610846C0690121490508408E
:100F5000009000BF00BFC02001901220029001202D
:100F60000390032004900120059001A91D48FFF77C
:100F70002FFC00BF1A48C0690121490508431849E0
:100F8000C8610846C069012149050840009000BFBA
:100F900022E01549206888421ED10320800201907A
:100FA000122002900120039003200490012005905C
:100FB00001A90C48FFF70CFC00BF0948C0690121DA
:100FC000890508430649C8610846C06901218905A9
:100FD0000840009000BF00BF06B010BD00540040A4
:100FE0000010024000040048005800400248006819
:100FF000401C0149086070475400002010B50648A5
:1010000000681021084304490860002000F006F839
:1010100000F04AF8002010BD0020024070B586B0F4
:1010200004460025002600222146112000F078F811
:10103000112000F069F800BF1648C069102108436C
:101040001449C8610846C06910210840009000BFDB
:1010500000BF01A902A800F0DFF900F0FFF9054682
:101060000D492846FFF77AF8461E0C480C490860DF
:101070000C490B48C160466000210161816000F0AD
:1010800037FD002804D1064800F04FFD06B070BDC2
:101090000120FBE70010024040420F00001000401A
:1010A00060010020E703000008B500BF1548806913
:1010B000012108431349886108468069C007C00FB1
:1010C000009000BF00BF00BF0846C0690904084384
:1010D0000C49C8610846C06909040840009000BF77
:1010E00000BF00221146501F00F01AF80022032111
:1010F000481F00F015F800220321081F00F010F827
:1011000008BD00000010024000BFC206D20E01213F
:101110009140024A116000BF7047000000E100E00A
:1011200070B504460D4616462946204601F07EF865
:1011300070BD0000F8B50446002600250121090411
:101140002068084088427AD100274B48C0690903CB
:10115000084000280DD100BF4748C06908434649F0
:10116000C8610846C06909040840009000BF00BF7C
:10117000012742480068FF2101310840002816D1AC
:101180003E48006808433D490860FFF729FC0646D1
:1011900006E0FFF725FC801B642801D90320F8BD79
:1011A00036480068FF21013108400028F1D032485C
:1011B000006A0321090208400546002D2DD0606811
:1011C0000840A84229D02C48006A884305462A488E
:1011D000006A012109040843274908620846006A99
:1011E0000121090488432449086208460562E8078A
:1011F000C00F002811D0FFF7F3FB064607E0FFF70A
:10120000EFFB801B1E49884201D90320C7E71A481B
:10121000006A022108400028F1D01748006A032123
:10122000090288436168084313490862012F05D108
:101230000846C069090488430F49C86100BF207887
:10124000C007C00F002807D00B48006B8008800043
:10125000A168084308490863202120680840202825
:1012600007D10548006B10218843E1680843024913
:101270000863002093E70000001002400070004067
:101280008813000070B504460D4600265D480068CE
:10129000C007C00FA8420ED25A480068400840005C
:1012A00028435849086008460068C007C00FA84294
:1012B00001D0012070BD022120680840022807D11A
:1012C00051484068F0218843A16808434E4948606E
:1012D0002078C007C00F00285FD06068012808D1BF
:1012E00049480068012149040840002815D101201F
:1012F000E0E76068022808D14348006801214906F8
:101300000840002809D10120D4E73F4800680221A5
:101310000840002801D10120CCE73B484068800804
:1013200080006168084338494860FFF759FB06466A
:10133000606801280FD107E0FFF752FB801B33499B
:10134000884201D90320B5E72F4840680C210840A6
:101350000428F1D121E0606802280FD107E0FFF7EF
:101360003FFB801B2949884201D90320A2E7264878
:1013700040680C2108400828F1D10EE007E0FFF793
:101380002FFB801B2149884201D9032092E71E4888
:1013900040680C2108400028F1D11A480068C007B5
:1013A000C00FA8420ED917480068400840002843E3
:1013B0001449086008460068C007C00FA84201D061
:1013C000012077E7042120680840042808D10E484E
:1013D0004068072109028843E16808430A494860D8
:1013E00000F04EF808494968F02211400909084AFE
:1013F000515CC840074908600020FFF70FFE00203D
:1014000058E700000020024000100240881300004E
:10141000606D000858000020072202600A4A5268E6
:101420009207920F4260084A5268F0231A40826085
:10143000054A526807231B021A40C260034A126819
:10144000D207D20F0A60704700100240002002400D
:1014500001480068704700005800002000B5FFF701
:10146000F7FF05494968072212021140090A034A99
:10147000515CC84000BD000000100240706D0008C3
:10148000F0B589B024A001460EC9C06805AC0EC4F1
:10149000089025A001460EC9C06801AC0EC4049096
:1014A00000240027002500260020009022484468E0
:1014B0000C202040002827D0042802D0082822D160
:1014C00002E01E48009022E00F2080042040800CA3
:1014D00005A90E5C1848C06A0007000F01A90F5C3F
:1014E00001200004204001210904884206D1394628
:1014F0001248FEF733FE7043054602E010483546B9
:101500004543009503E000BF0C48009000BF00BFBA
:10151000009809B0F0BD00000203040506070809A1
:101520000A0B0C0D0E0F101001020304050607082C
:10153000090A0B0C0D0E0F100010024000127A0069
:1015400000093D00F8B5044600252078C007C00F0B
:10155000002871D0F94840680C21084004280BD0BD
:10156000F64840680840082812D1F4484068012134
:101570000904084088420BD1F04800680121490461
:10158000084000286BD06068002868D10120F8BDB1
:1015900000BF6068012807D1E848006801210904FC
:1015A0000843E649086031E0606800280ED1E3484E
:1015B0000068012109048843E04908600846006882
:1015C000012189048843DD4908601FE0606805281F
:1015D0000ED1DA480068012189040843D749086020
:1015E00008460068012109040843D44908600DE059
:1015F000D2480068012109048843D04908600846A0
:101600000068012189048843CC49086000BF6068F4
:10161000002812D0FFF7E4F9054606E0FFF7E0F9ED
:10162000401B642801D90320B1E7C44800680121A8
:10163000490408400028F1D011E0FFF7D1F9054630
:1016400006E0FFF7CDF9401B642801D903209EE78F
:10165000BA4800680121490408400028F1D102215C
:1016600020680840022861D1B44840680C21084035
:1016700000280BD0B1484068084008281BD1AF486B
:101680004068012109040840002814D1AB480068D3
:1016900002210840002804D0E068012801D0012080
:1016A00075E7A6480068F82188432169C900084306
:1016B000A24908603AE0E068002820D09F4800680E
:1016C000012108439D490860FFF78AF9054606E0B5
:1016D000FFF786F9401B022801D9032057E79748F6
:1016E0000068022108400028F2D094480068F821E0
:1016F00088432169C90008439049086016E08F4873
:101700000068400840008D490860FFF769F9054608
:1017100006E0FFF765F9401B022801D9032036E7F0
:1017200086480068022108400028F2D1082120687C
:101730000840082831D1E069002817D07F48406A66
:10174000012108437D494862FFF74AF9054606E052
:10175000FFF746F9401B022801D9032017E7774815
:10176000406A022108400028F2D016E07348406A1F
:101770004008400071494862FFF732F9054606E02B
:10178000FFF72EF9401B022801D90320FFE66B4822
:10179000406A022108400028F2D104212068084054
:1017A000042871D100266548C069890608400028D0
:1017B0000DD100BF6148C06908436049C86108464F
:1017C000C06909040840009000BF00BF01265C48C2
:1017D0000068FF2101310840002816D158480068F0
:1017E000084357490860FFF7FBF8054606E0FFF796
:1017F000F7F8401B642801D90320C8E65048006868
:10180000FF21013108400028F1D000BFA068012865
:1018100006D14A48006A01210843484908622BE082
:10182000A06800280CD14548006A400840004349A0
:1018300008620846006A04218843404908621BE0A8
:10184000A06805280CD13D48006A042108433B49A3
:1018500008620846006A01210843384908620BE023
:101860003648006A40084000344908620846006A69
:10187000042188433149086200BFA068002813D0C2
:10188000FFF7AEF8054608E029E0FFF7A9F8401B8E
:101890002C49884201D9032079E62848006A0221B0
:1018A00008400028F1D011E0FFF79AF8054607E05C
:1018B000FFF796F8401B2349884201D9032066E6CA
:1018C0001E48006A022108400028F1D1012E05D1EE
:1018D0001A48C069310788431849C86100BF102100
:1018E0002068084010285FD1606901282CD1134876
:1018F000406B04210843114948630846406B0121AD
:1019000008430E494863FFF76BF8054606E0FFF70A
:1019100067F8401B022801D9032038E60748406BCE
:10192000022108400028F2D00448406BF821884387
:10193000A169C90008430149486335E0001002402D
:1019400000700040881300006069401D00280FD11E
:101950004E48406B042188434C4948630846406B1D
:10196000F8218843A169C9000843484948631BE03E
:101970004648406B04210843444948630846406B8D
:10198000400840004863FFF72BF8054606E0FFF7E4
:1019900027F8401B022801D90320F8E53B48406B9B
:1019A000022108400028F2D1206A00286CD0374874
:1019B00040680C210840082864D0206A022847D1DA
:1019C0003248006801210906884330490860FFF762
:1019D00007F8054606E0FFF703F8401B022801D987
:1019E0000320D4E529480068012149060840002861
:1019F000F1D100BF2548C06A00090001E16A08432F
:101A00002249C862616AA06A0843204949683D22A8
:101A10001204914308431D49486000BF084600680E
:101A200001210906084319490860FEF7D9FF054658
:101A300006E0FEF7D5FF401B022801D90320A6E5EA
:101A4000124800680121490608400028F1D01BE037
:101A50000E4800680121090688430C490860FEF71A
:101A6000BFFF054606E0FEF7BBFF401B022801D979
:101A700003208CE50548006801214906084000283C
:101A8000F1D101E0012082E5002080E50010024054
:101A9000042806D10649096904221143044A116148
:101AA00005E00349096904229143014A1161704725
:101AB00000E000E070B504462546681E09498842EA
:101AC00001D901200CE0681E074948610321081F65
:101AD00000F0ACFB00200449886107200861002069
:101AE00070BD0000FFFFFF0000E000E0704770479E
:101AF00010B50446002C01D1012010BD3D20005D31
:101B0000002805D100213C200155204600F00CF8AA
:101B100002213D200155211D206800F09FFD01217B
:101B20003D2001550020E8E7704701460868C0687D
:101B3000012210430A68D06008680068012210433F
:101B40000A68106000207047704710B5044620688E
:101B5000006902210840400800281CD02068C068A5
:101B600008404008002816D0481F2168086101205D
:101B70002077206880698007800F002803D02046E6
:101B8000FFF7E2FF05E0204600F0C3F8204600F032
:101B9000C1F80020207720680069042108408008EF
:101BA00000281DD02068C06808408008002817D091
:101BB000C8432168086102202077206880690321DA
:101BC00009020840002803D02046FFF7BDFF05E0CA
:101BD000204600F09EF8204600F09CF80020207778
:101BE0002068006908210840C00800281CD020682F
:101BF000C0680840C008002816D0C84321680861A2
:101C0000042020772068C0698007800F002803D057
:101C10002046FFF799FF05E0204600F07AF82046BD
:101C200000F078F800202077206800691021084033
:101C3000000900281DD02068C0680840000900285D
:101C400017D0C84321680861082020772068C06940
:101C5000032109020840002803D02046FFF774FF43
:101C600005E0204600F055F8204600F053F800202B
:101C7000207720680069C007C00F01214840484014
:101C800000280CD02068C068084048404840002820
:101C900005D0C81E21680861204600F03DF8206884
:101CA000006980210840C00900280BD02068C06866
:101CB0000840C009002805D0C843216808612046B3
:101CC000FFF714FF206800694021084080090028C0
:101CD0000BD02068C06808408009002805D0C843A0
:101CE00021680861204600F023F82068006920215F
:101CF0000840400900280BD02068C068084040090F
:101D0000002805D0C843216808612046FFF7EFFE90
:101D100010BD70477047000010B5044603492068A5
:101D2000884201D1FFF762F910BD000000100040A9
:101D3000704700BFFEE70168896902221140490827
:101D4000002902D000210268916201688969C907EF
:101D5000C90F012251405140002904D1016889690D
:101D6000114302689161704770B504460D461646EE
:101D70002068806910210840000900283AD015E049
:101D8000681C002812D0002D04D0FEF729FE801B0D
:101D9000A8420BD9202141200155002142200155A4
:101DA00000BF4020015500BF032070BD206880693E
:101DB0002021084040090028E2D010202168C86195
:101DC00020202168C8612046FFF7B5FF20684068E1
:101DD00009490840216848600420606420214120AE
:101DE000015500214220015500BF4020015500BF90
:101DF0000120DAE70020D8E700E800FEFFB581B057
:101E0000044615461E460A9F01204003F2B20023F5
:101E100000902046029900F083F8394620460B9A3C
:101E200000F0ECF8002807D0606C042802D10120F3
:101E300005B0F0BD0320FBE7012E03D1E8B2216815
:101E4000886216E0FF2000022840001221688862A4
:101E5000394620460B9A00F0D1F8002806D0606C75
:101E6000042801D10120E3E70320E1E7E8B221687B
:101E700088620B983B46002240210090204600F0EB
:101E800067F8002801D00320D2E70020D0E7FFB593
:101E900081B0044615461E460A9F01204003F2B257
:101EA000C30200902046029900F03AF839462046D5
:101EB0000B9A00F0A3F8002807D0606C042802D128
:101EC000012005B0F0BD0320FBE7012E03D1E8B2ED
:101ED0002168886216E0FF20000228400012216875
:101EE0008862394620460B9A00F088F8002806D010
:101EF000606C042801D10120E3E70320E1E7E8B2A8
:101F0000216888620B983B46002280210090204681
:101F100000F01EF8002801D00320D2E70020D0E70F
:101F2000F0B50C46002105686968084D2940A505F3
:101F3000AD0D1604FF273F043E4035431D43059E6B
:101F40003543294305686960F0BD0000009800FC36
:101F5000F8B504460E4617461D4616E0681C0028D4
:101F600013D0002D05D0FEF73BFD0699401AA8427C
:101F70000BD920214120015500214220015500BFED
:101F80004020015500BF0320F8BD20688069304023
:101F9000B04201D1012000E00020B842DED0002094
:101FA000F2E770B504460D4616461EE03246294655
:101FB0002046FFF7D9FE002801D0012070BD002D7A
:101FC00004D0FEF70DFD801BA8420ED9606C2021C5
:101FD000084360644120015500214220015500BFA3
:101FE0004020015500BF0320E8E7206880692021D8
:101FF000084040090028D9D00020DFE770B504462A
:102000000D46164621E0324629462046FFF7ACFE33
:10201000002801D0012070BD681C002815D0002DBB
:1020200004D0FEF7DDFC801BA8420ED9606C202195
:10203000084360644120015500214220015500BF42
:102040004020015500BF0320E5E720688069022198
:10205000084040080028D6D00020DCE705480649A3
:1020600088620648C862EE2088760548086300202A
:102070007047000079070008A00500204D07000800
:10208000A507000800B587B000BF264840690121B8
:10209000490408432349486108464069012149042D
:1020A0000840019000BF00BF00BF1E4840694900C2
:1020B00008431C49486108464069012189040840D9
:1020C000019000BF00BF002201210920C006FEF7D9
:1020D00080FC012211031448FEF77BFC01200290D2
:1020E000039000200490059002A90920C006FEF785
:1020F0006FFB012000030290112003900020049048
:10210000059002A90848FEF763FB072040030290F0
:10211000002003900120049002A90348FEF758FB19
:1021200007B000BD001002400004004810B5174879
:10213000174908601748486000211548816001214F
:10214000C1600021016141618161C1610162FEF7ED
:10215000BDFC002803D0F1210FA000F0CFFA01212F
:1021600009030B48FEF742FC002803D0F8210AA01F
:1021700000F0C4FA00210648FEF76FFC002803D0E7
:10218000FF2105A000F0BAFA10BD00000054004085
:10219000B40000202D1D10002E2E2F5372632F6DC2
:1021A00061696E2E6300000010B518481849086078
:1021B000184848600021164881600121C160002153
:1021C000016141618161C1610162FEF77FFC00280C
:1021D00004D0FF21143110A000F090FA00210C4827
:1021E000FEF704FC002804D0FF211B310AA000F0F8
:1021F00085FA00210648FEF730FC002804D0FF21B4
:10220000223105A000F07AFA10BD0000005800400D
:10221000000100205D3E30202E2E2F5372632F6D63
:1022200061696E2E630000007047000010B5002841
:1022300019DA1A4A03071B0F083B9B089B00D25868
:102240008307DC0EFF23A3409A438B071B0E8407F2
:10225000E40EA3401A43114B0407240F083CA408C2
:10226000A4001A5118E00E4A03231B02D218830857
:102270009B00D2588307DC0EFF23A3409A438B07B1
:102280001B0E8407E40EA3401A43054B03242402CB
:102290001B198408A4001A5110BD00001CED00E0B9
:1022A00000E100E0704700001FB501F03FFD00BFF6
:1022B000002496E0322001F006FA0121C9038B4880
:1022C000FEF77EFB002874D102E0322001F0FBF91A
:1022D0000121C9038548FEF773FB0028F5D00020D3
:1022E00001F012FD0021084601F086FD804881A121
:1022F0000CC8824800F004FA0123814806C87F48D0
:1023000001F014FE01F07EFD61E0012189037748B0
:10231000FEF756FB002827D100227A4B744903C9E7
:10232000FDF77CFF724A03C2002001F0EDFC0021A2
:10233000084601F061FD6E486EA10CC86F4800F0C0
:10234000DFF901236E4806C86C4801F0EFFD01F08B
:1023500059FD02E0322001F0B6F9012189036348FA
:10236000FEF72EFB0028F5D0012149035F48FEF758
:1023700027FB002828D10022624B5D4903C9FDF7E5
:10238000F1FF5B4A03C2002001F0BEFC00210846B9
:1023900001F032FD564857A10CC8584800F0B0F97A
:1023A0000123574806C8554801F0C0FD01F02AFD39
:1023B00003E014E0322001F086F9012149034B4883
:1023C000FEF7FEFA0028F5D0322001F07CF9012159
:1023D000C9034648FEF7F4FA002896D104E0601CD1
:1023E00084B2102C00DA65E700BF474801F0E6F838
:1023F00000282DD144494878FEF73AF805460022D6
:10240000424BFDF7BDFF039102903F490878FEF76C
:102410002FF801910090039B029AFDF7FFFE3C4AC2
:1024200003C23949C878FEF723F805460022374B26
:10243000FDF7A6FF0391029033498878FEF718F85C
:1024400001910090039B029AFDF7E8FE314A03C216
:10245000274830490CC803C9FEF718F806D20122F4
:1024600011460920C006FEF7B4FA05E0002201215A
:102470000920C006FEF7ADFA00F0D8FD2649086035
:10248000002001F041FC0021084601F0B5FC214884
:1024900018A10CC8194800F033F90123184806C8E0
:1024A000164801F043FD1621002001F0A5FC184854
:1024B0001AA10CC8114800F023F90123104806C8DE
:1024C0000E4801F033FD2D21002001F095FC12484B
:1024D00014A10268094800F013F90123084806C84E
:1024E000064801F023FD01F08DFCE1E60004004800
:1024F0002000002025322E31662743004C010020A9
:10250000340000200000F03F0600002000002440BE
:1025100010000020180000202800002025322E3155
:10252000662525002564700010B501F0DEF810BDA9
:1025300030B595B00220099001200C9010200D902C
:1025400002201190002112910521C904139100214C
:10255000149109A8FEF7F6FF002803D0BF211AA0A6
:1025600000F0CCF80720059002200690002007908C
:102570000890012105A8FEF785FE002803D0CC2194
:1025800011A000F0BBF8202001900020049001A8C9
:10259000FEF7D0FD002803D0D3210BA000F0AEF849
:1025A000FEF756FF05467D21C900FDF7D7FD04461D
:1025B000FFF780FA0420FFF76BFA00220321081FBF
:1025C000FEF7AEFD15B030BD2E2E2F5372632F6D6A
:1025D00061696E2E630000001948006801210843FC
:1025E0001749086008464068164908401449486081
:1025F0000846006814490840114908600846006808
:102600000121890488430E490860084640683F213B
:10261000090488430A4948600846C06A0009000165
:10262000C8620846006BFF211431884304490863DF
:102630000846406B400840004863002088607047AF
:10264000001002400CB8FF08FFFFF6FE10B502486C
:10265000FFF77BFA10BD00006001002010B50022DA
:102660000268204B984202D01F4B984205D170243B
:102670001346A3431A464B681A431A4B98420ED08E
:10268000194B98420BD0194B984208D0184B9842DE
:1026900005D0184B984202D0174B984206D103241C
:1026A00024021346A3431A46CB681A4380241346D8
:1026B000A3434C6923431A4602608B68C3620B68CC
:1026C0008362084B984208D0094B984205D0094BC9
:1026D000984202D0084B984201D10B690363012351
:1026E000436110BD002C0140000400400020004068
:1026F00000400140004401400048014000BFFEE7A7
:102700000FB410B504A9074B02AA039800F0ECF827
:10271000044602A9002000F083FC204610BC08BC3F
:1027200004B01847213000082021020C01D01021EC
:102730001046020A01D010460839020901D010469D
:10274000091F820801D01046891E420801D0881E48
:102750007047081A704702E008C8121F08C1002A13
:10276000FAD170477047002001E001C1121F002A12
:10277000FBD17047F0B51FB486B00998089A030DD5
:102780000021024314D05148514A181850430514EF
:102790001198012810981AD0281A401C00264D4F75
:1027A0004D49009601910490002812DA444211E04C
:1027B0001198012449A3012801D11098C14306981A
:1027C000119A84600360C26041600BB0F0BD40426A
:1027D000E4E70446210500203F4A001C51410391D3
:1027E000029012E0E00707D032463B46019900987C
:1027F000FDF712FF0191009032463B461046194604
:10280000FDF70AFF06460F466410002CEAD1049833
:10281000039B0028029A0999089806DAFDF7FCFE46
:10282000019B009AFDF7F8FE05E0FDF7A9FD019B6D
:10283000009AFDF7A5FD04460E460022284BFDF741
:1028400025FE03D80020C043014607E00022254BA7
:1028500020463146FDF7E2FCFDF746FF102409E073
:10286000002C0ADB0A220023FDF724FE079B3032EE
:102870001A55641E02460A43F2D11122641C079BBA
:10288000121B1C19119B012B03D0012308430ED1ED
:102890000AE0084304D0112010900020119077E73F
:1028A0001098151A6D1E0BE01098824202DD00236D
:1028B0006D1C03E0824201DA00236D1E002BEED076
:1028C000069811998260C16030C07EE701FCFFFF6D
:1028D000104D0000000014400000F03F30000000E8
:1028E0000000F0430000E03FFFB597B0064600252A
:1028F00018E2252877D100242746FD49049400E0FA
:102900000443761C32780120203A90400842F7D1E7
:1029100030782A280ED00222307801463039092931
:1029200016D804990A235943303940181443761CA9
:102930000490F1E7189802C804911890002904DA6D
:102940000120400304434842049002200443761CC3
:1029500030782E2814D1042004437078761C2A285D
:1029600009D11898761C80C8189009E00A214F43B5
:10297000303FC719761C3078014630390929F5D91E
:1029800030786C2810D006DC4C281AD068280ED07D
:102990006A2817D104E0742813D07A2812D110E0E5
:1029A0000120400504430CE00121090501E0032159
:1029B00009050C437178814203D1012000052418D8
:1029C000761C761C3078119066280BD013DC5828C2
:1029D0007DD009DC00287BD04528F6D04628F4D0ED
:1029E00047281AD1A5E118E0632835D0642870D0B3
:1029F000652812D19DE170286CD008DC6728F1D0E1
:102A000069287BD06E280DD06F2806D1BAE07328D4
:102A10002ED0752871D0782859D01A9A19999047D4
:102A20006D1C7EE16002400F022809D003280DD002
:102A30000428189801680DD00D60001D189070E1F1
:102A40001898EA1701680D604A60F6E7189801685F
:102A50000D80F2E70D70F0E718986A460178117260
:102A6000001D18900020507202A80090012005E07F
:102A7000189802C8189000200091C04361070DD536
:102A8000002101E00199491C0191B94212DA814209
:102A9000F8DB009A515C0029F4D10BE0002101E041
:102AA0000199491C01918142FADB019A0099895CE4
:102AB0000029F5D1019904981A9B471A21463846F6
:102AC000199A00F097FA0199401945180BE04FE068
:102AD0002CE113E04EE0009800990078491C009129
:102AE0001A9A199990470198401E0190401CF2D102
:102AF000214638461A9B199A10E137E00A20002136
:102B0000009001916002410F022907D0189A01CA72
:102B10001892C2179446032908D00AE01898C01DDD
:102B2000C108C90005C91891944607E000B2C21750
:102B30009446042902D140B2C1178C460022614656
:102B4000944506DA0A460021404291418C462D21E7
:102B500002E0210504D52B216A461173012103E00F
:102B6000E10701D02021F7E7029155E00A200AE0B1
:102B7000102008E01020009000210420044301915F
:102B8000082703E008200021019100906002410F16
:102B9000022907D0189A01CA1892002294460329E4
:102BA00008D008E01898C01DC108C90005C91891CF
:102BB000944603E080B2042900D1C0B20021029102
:102BC000210729D51199702906D0009A1021019B5F
:102BD0004A401A4305D00EE040216A461173012194
:102BE00008E06146014306D030216A46117311990D
:102BF000517302210291009A0821019B4A401A4315
:102C00000AD16146014301D1610705D530216A46E9
:102C1000117301217F1E02911199582904D035A109
:102C20000E910DA90D910DE037A1F9E76146019BC9
:102C3000009AFDF73FFC0E9B8C469B5C0D9A521E42
:102C40000D92137061460143F0D10D9805A9081A41
:102C500020300190600703D501200004844300E088
:102C600001270198874201DD381A00E00020019910
:102C700000904118029809180498401A0490E00343
:102C800006D421461A9B199A049800F0B3F9451905
:102C9000002706E003A81A9AC05D199990476D1C99
:102CA0007F1C02988742F5DBE0030CD521461A9B76
:102CB000199A049800F09EF9451904E01A9A3020F8
:102CC000199990476D1C0099481E00900029F5DC69
:102CD00008E00D980D990078491C0D911A9A1999E0
:102CE00090476D1C0199481E01900029F1DC63E1B9
:102CF00009280100303132333435363738396162D2
:102D00006364656600000000303132333435363795
:102D100038394142434445460000000000F05AF96A
:102D20004519761C3078002800D0E2E528461BB013
:102D3000F0BD600700D406271898C01DC108C9005F
:102D400048680A680831C30FDB071891190001D0E1
:102D50009CA108E0210501D59BA104E0E10701D079
:102D60009AA100E09AA1430011985B081091652890
:102D70000CD006DC452809D046281DD0472841D173
:102D800041E0662818D067283CD13CE00021112F93
:102D900001DB112000E0781C0191009008A911A826
:102DA000FFF7E8FC139905910021119A15927F1CF9
:102DB00012980197009150E00120C0070390012074
:102DC000019008A9009711A8FFF7D4FC139A149951
:102DD00005920022119B009212981593059A019278
:102DE000002901D0104602E0791C40180190381AE1
:102DF00001D5019804E04042401E0090781C0190EB
:102E0000C01B029043E0012F00DA01270021112F9F
:102E100001DD112000E038460191009008A911A8B9
:102E2000FFF7A8FC13990591119A002112981592A9
:102E30000091019721070CD40599B94201DB019952
:102E400000E00191012904DD159A491E515C3029E9
:102E500006D0B84201DA011D05DA0121029115E020
:102E60000199491EEDE7002805DC00994118009101
:102E70000199091A03E0019A411C914200DD019178
:102E80000099401A401C02900120C00703902007BF
:102E900006D402990198814202DB0020C0430290CF
:102EA00000206946C87707AF012103980337C90797
:102EB000884224D0022011902B20129003980028E1
:102EC0000CDA404203902D20129007E00A2103986B
:102ED000FDF744F930317F1E039039701199481E77
:102EE00011900029F2DC03980028EFD1791E129886
:102EF00008703078202108404530BF1E387006A881
:102F0000C01BC01D039010980078002800D001203D
:102F1000019941180298C0170918039809180498D4
:102F2000401A401E0490E00306D421461A9B199AC9
:102F3000049800F05FF8451910980078002803D035
:102F40001A9A199990476D1CE00324D521461A9BC3
:102F5000199A049800F04EF845191CE000980028D2
:102F600007DB00990598884203DD1598405C1999A4
:102F700001E0199930201A9A904700986D1C401C66
:102F800000900298401E0290002804D11A9A2E2028
:102F9000199990476D1C0199481E01900029DDDCAC
:102FA00005E038781A9A7F1C199990476D1C03998F
:102FB000481E03900029F4DC21461A9B199A0498B4
:102FC000ACE600002D0000002B00000020000000F7
:102FD00000000000F8B5044600251E461746880488
:102FE00004D405E039462020B0476D1C641EF9D595
:102FF0002846F8BDFFB50446002581B01E46C8032B
:1030000001D5302700E02027880404D505E03846A4
:103010000399B0476D1C641EF9D5284605B0F0BD74
:103020000A68531C0B6010707047000070B50024D4
:103030000025FFF713F8124800F038FA114908602C
:1030400000F022F80F49096840180E49086000F0A6
:10305000FBF9044600F054F90546204600F020F93B
:1030600008490968401807490860284600F090F8A8
:10307000044909684018034908600846006870BDA3
:10308000A00500205000002030B587B00024E443A4
:10309000182101A8FDF7B6F83C490968887E3B492C
:1030A0000968162301AACD6AAA21A84704466846E2
:1030B000007940B201026846407901433348006814
:1030C00001806846807940B201026846C0790143B8
:1030D0002E48006841806846007A40B20102684686
:1030E000407A01432948006881806846807A01025D
:1030F0006846C07A014325480068C1806846007B65
:1031000001026846407B014320480068018168460F
:10311000807B01026846C07B01431C4800684181F6
:103120006846007C40B201026846407C0143174873
:10313000006881816846807C40B201026846C07C9C
:10314000014312480068C1816846007D40B2010217
:103150006846407D01430D48006801826846807DD5
:1031600040B201026846C07D0143084800684182C0
:103170006846007E40B200026946497E0843034922
:1031800009688882204607B030BD00004C0000204E
:10319000F1B584B00027002000903C480068C06969
:1031A0007D214901471A384678430413374801689E
:1031B0000E20085E4443E412344801680220085E91
:1031C00078430646F612A0190390304800680021A3
:1031D000415E8900039808182C490968898C884049
:1031E000801C80100290294801680420085E784302
:1031F0004413264801680C20085E394679430913B8
:1032000048430614A019801C801003901F480068D2
:10321000C0880122D203039989184843C00B01904A
:1032200002990498401A194909688A8C1849114171
:10323000484300900121C907009888420CD20198A8
:10324000002806D0009948000199FCF787FF054641
:103250000DE0002005B0F0BD0198002805D00199CF
:103260000098FCF77BFF450001E00020F2E72C12FC
:103270006443084860430414074868430614A019CF
:1032800006494018001145192846E3E74C00002084
:1032900050C30000DE0B000043E3FFFFCF0E000031
:1032A000F8B5054600260027144800684089281A0A
:1032B0001249096809894843C413002C05D10F48F5
:1032C0000068808A002800D1F8BD0C4A13681422D7
:1032D0009A5E1119094A12681223D35ED802FCF7CC
:1032E00053FF0746E01905490968C86103480068AB
:1032F000C0690830001106B23046E5E74C000020F6
:10330000FEB5002400250020029001900090461E8A
:103310004C480068C08C01284FD14A480068808C16
:1033200003284AD100BF40E046480068808C8001F5
:103330003430C1B2009143490968887E4149096827
:1033400001236A468F6AF421B84706463D4A12684F
:10335000938C03229A40901C3A4A1268116B88475A
:1033600038490968887E37490968032301AACF6A6A
:10337000F621B847801946B26846007901046846CC
:103380004079000208436946897908432D49096854
:10339000898C0822511AC8400290012029490968E5
:1033A000086202982D18601CC4B2032CBCDB0321F8
:1033B0002846FCF7D3FE054641E022480068C08C51
:1033C00000283CD11F480068808C80013430C1B295
:1033D00000911C490968887E1A49096801236A46D8
:1033E0008F6AF421B8470646164A1268938C032266
:1033F0009A40901C134A1268116B8847114909685A
:10340000887E10490968032301AACF6AF621B847CC
:10341000801946B268460079010468464079000286
:10342000084369468979084306490968898C082256
:10343000511AC84005460120024909680862284619
:10344000FEBD00004C000020FEB5002400200190CD
:1034500000210091451E00272E21009105271249C9
:103460000968887E1049096801236A468E6AF4213A
:10347000B04705460C480068016B384688470A4942
:103480000968887E08490968022301AACE6AF621E4
:10349000B047401945B2684600790002694649794B
:1034A000084384B22046FEBD4C000020F8B5054616
:1034B0000024E443002100911E480560014609688C
:1034C000887E1C49096801236A46CE6AD021B0472C
:1034D00004466846007817490968C87501201549EF
:1034E000096808620020134909688884114909683D
:1034F000C88410490968887E0E49096801236A4614
:10350000CE6AD121B047001944B26846007800075E
:10351000000F08490968087668460078F0210840DD
:103520000011044909684876FFF7AEFD001944B25E
:103530002046F8BD4C00002006E0042100BF0A46EA
:103540004B1ED9B2002AFAD10246431E98B2002A75
:10355000F3D170477047704710B500BF01210903D0
:103560000D48FDF72DFA0028F8D02820FFF7E4FFDA
:10357000012109030848FDF723FA012809D100BFFA
:10358000012109030448FDF71BFA0128F8D00120A6
:1035900010BD0020FCE700000004004870B50024C6
:1035A000002506E06004040CFFF7D6FF0443681C06
:1035B00085B2082DF6DB204670BD000070B50446CC
:1035C000002500F035F800F04FF800282CD100BF9E
:1035D00000F04AF80028FBD000BF00F045F80128B1
:1035E000FBD0002504E0FFF7D9FF6055681C85B2C9
:1035F000052DF8DB00BF00F037F80028FBD0FFF7FF
:10360000AAFF012211030948FDF7E3F92078617848
:103610004018A1784018E1784018C6B22079B0422D
:1036200001D0012070BD00BF0020FBE7000400486E
:1036300010B5FFF790FF0022012109030848FDF7AC
:10364000C8F90848FFF778FF012211030448FDF785
:10365000C0F91E20FFF770FFFFF77CFF10BD0000D0
:1036600000040048384A000010B50121090302484F
:10367000FDF7A6F910BD00000004004886B0FDF774
:10368000BDFCFEF755FFFEF7FDFCFEF74FFDFEF714
:103690008BFD1422064901A8FCF79BFD002101A81F
:1036A00000F02BF80349086000F01AF800BFFEE7AD
:1036B000384500080000002001460020842901D080
:1036C000CA1C1018704770B504462546002D01D05D
:1036D000294600E00121084600F00AFD002070BDE7
:1036E00010B500F027FD002010BD10B500F0FCFD66
:1036F000012801D000F0B8FD10BDFEB504460D460E
:103700000820205EFFF7D8FF064602A80096019029
:10371000238A9AB22B462168606800F0B7FD012821
:1037200001D00020FEBD0298FCE70000F8B5054678
:103730000E461748076817480068001D00F00CFC8B
:10374000681C002808D1002E06D012480168091D07
:10375000114800F040FC1AE07C190E4800684460F3
:10376000BC4207D20B480168091D0C48006800F0F4
:1037700017FC0CE007480168091D0948006800F0C3
:103780000FFC08480068844201D206480460F8BD76
:103790008C00002078000020B01200208000002063
:1037A0007C000020A800002010B5044600F020FC9A
:1037B00020480068401C1F4908601F480068002816
:1037C00008D11D4804600846006801280ED100F0A9
:1037D00017F90BE019480068002807D1164800685F
:1037E000C06AE16A884201D813480460144800683E
:1037F000401C134908601349E06A0968884202D9ED
:103800001049E06A08601422E16A51430E4A8818A0
:10381000211D00F0E0FB00F0F9FB084800680028DB
:1038200007D005480068C06AE16A884201D200F00A
:1038300053FC10BD88000020780000209400002078
:10384000A400002090000020D411002070B525E0D5
:1038500000F0A6FC14480068002801D1012000E017
:103860000020054600F0F0FD002D17D100F0C0FB50
:103870000D48C068C468201D00F06EFB0B4800684E
:10388000401E0A4908600A480068401E084908604E
:1038900000F0BCFB204600F00DF800BF04480068B3
:1038A0000028D5D170BD00009C12002088000020A7
:1038B0008400002010B50446206B00F0BBFB2046BE
:1038C00000F0B8FB10BD000030B503239B02174881
:1038D0004407640F002C05D0C01DC008C000134C65
:1038E000041B1B1B0246124C22600024104D6C600E
:1038F000D0180838C008C0000E4C206000240D4DC0
:103900002D686C600B4D2D682C601146441A4C607C
:10391000084C24680C60084D4C682C60074D4C68BE
:103920002C600124E407064D2C6030BDD405002036
:103930005C000020640000206C0000206800002073
:103940007000002000BFFFF781FF034800680128D6
:10395000F9D900F0C1FBF6E7D4110020FFB581B022
:103960000F460A9E0C9C216B0398401E800008188D
:1039700000900098C008C000009000984007400FD9
:10398000002801D1012000E00020002802D172B6F9
:1039900000BFFEE7002508E0795D20463430415540
:1039A000785D002800D102E06D1C102DF4D300BF1B
:1039B000002143200155072E00D30626E6626664E7
:1039C0000020A064201D00F0E8FA2046183000F026
:1039D000E4FA24610720801BA06164620020E06497
:1039E000002150200155049A0199009800F02AF90D
:1039F00020600B98002801D00B98046005B0F0BD42
:103A000010B5002406E0142161430E4A881800F026
:103A1000B7FA641C072CF6D30B4800F0B1FA0B4838
:103A200000F0AEFA0A4800F0ABFA0A4800F0A8FA33
:103A3000094800F0A5FA0448084908600348084905
:103A4000086010BDD4110020601200207412002004
:103A5000881200209C120020B01200207C00002060
:103A60008000002010B50146164800E00068036899
:103A70008B42FBD3024643689B188B4204D14368B8
:103A80004C681B19436001460A464B689B18046842
:103A9000A34211D10C4C03682468A34208D04B68A0
:103AA000046864681B194B6003681B680B6005E0C1
:103AB000054B1B680B6001E003680B60884200D077
:103AC000016010BD5C000020640000200B49096803
:103AD0000968002901D1012100E00021002904D05A
:103AE0000021C943064A116006E004490968C96813
:103AF000C868034A41681160704700007C000020DC
:103B0000A800002007480068401C002801D10120BF
:103B100000E00020002802D172B600BFFEE772B6B6
:103B200000BFFEE774000020F8B5044600200090B6
:103B300000F036FB3E480068002801D1FFF7C4FEC4
:103B40003C4800682040002861D1002C15D0083482
:103B50006007400F002810D06007400F0821081AA6
:103B600004196007400F002801D1012000E0002067
:103B7000002802D172B600BFFEE7002C47D02E48C5
:103B80000068844243D82D4E3046056801E02E4639
:103B90002D686868A04202D228680028F7D124481E
:103BA0000068854233D03068083000902868306063
:103BB0006868001B102813D92F197807400F0028B8
:103BC00001D1012000E00020002802D172B600BF20
:103BD000FEE76868001B78606C603846FFF742FFBC
:103BE000154968680968081A13490860084600689A
:103BF00013490968884203D20F48006810490860D9
:103C00000C4968680968084368600020286000F073
:103C10001BFC00984007400F002801D1012000E064
:103C20000020002802D172B600BFFEE70098F8BD60
:103C30006400002070000020680000205C0000206C
:103C40006C000020001F01231B060360001F0160A1
:103C5000001F034B036014380260203870470000D7
:103C6000053B0008F0B503461446802B01DA4029D5
:103C700000DBF0BD22480079002805D0002C01D1DE
:103C8000012000E000200446012C1BD10846CD177E
:103C90006D0F2D18ED10ED01ED181A4E755D0A46E9
:103CA000CE17760FB618F610F6008F1B0126BE4011
:103CB0003543CE17760F3618F610F601F618114F69
:103CC000BD551AE00846CD176D0F2D18ED10ED010A
:103CD000ED180C4E755D0A46CE17760FB618F61025
:103CE000F6008F1B0126BE40B543CE17760F36185F
:103CF000F610F601F618034FBD5500BFB9E70000F6
:103D000044000020A00100200146002007E0002917
:103D100001D1002200E0FF22034B1A54401C012273
:103D200092029042F3D37047A001002010B56420A6
:103D3000FCF73EFDAE2000F0E7F8202000F0E4F8AC
:103D4000102000F0E1F8B02000F0DEF8C82000F00C
:103D5000DBF8002000F0D8F8102000F0D5F8402063
:103D600000F0D2F8812000F0CFF8FF2000F0CCF86E
:103D7000A12000F0C9F8A62000F0C6F8A82000F0A5
:103D8000C3F83F2000F0C0F8A42000F0BDF8D32015
:103D900000F0BAF8002000F0B7F8D52000F0B4F831
:103DA000F02000F0B1F8D92000F0AEF8222000F0A9
:103DB000ABF8DA2000F0A8F8122000F0A5F8DB201C
:103DC00000F0A2F8202000F09FF88D2000F09CF871
:103DD000142000F099F8AF2000F096F80020FFF7CB
:103DE00093FF00F00FF8002002490880488001206E
:103DF000487110BD44000020014A10805180704776
:103E0000440000203EB500241AE02146B031C8B27B
:103E100000F07AF8002000F077F8102000F074F835
:103E200064218022E001084BC01801230192029115
:103E30000090402278210548FCF794FF601CC4B232
:103E4000082CE2DB3EBD0000A0010020B4000020F1
:103E5000FFB581B007461E462A4800886946097AA0
:103E60004018802806DA274840886946497A401871
:103E7000402802DB002005B0F0BD002434E03846C5
:103E800020386946497A4843001940000399085A86
:103E90000090002523E00098A8400121C9030840B4
:103EA00000280BD0174A92781219D1B2154A12780D
:103EB0005219D0B23246FFF7D5FE0FE0002E01D1E5
:103EC000012300E000231A460E4B9B781B19D9B240
:103ED0000C4B1B785B19D8B2FFF7C4FE6D1C68460B
:103EE000007AA842D7D8641C6846407AA042C6D857
:103EF000044800886946097A401802490880384613
:103F0000B9E700004400002001B584B00A20012177
:103F100004AA0B46009201910290002278210248E7
:103F2000FCF720FF05B000BDB40000203FB50446FB
:103F30001D460CE020782B46029A0199FFF788FF76
:103F40002178884202D0207804B030BD641C2078EB
:103F50000028EFD12078F7E701460A694B688868A6
:103F600098608B68486858605068884201D18868BA
:103F70005060002008611068401E10601068704793
:103F80000146083141600021C94381600146083182
:103F9000C16001610021016070470021016170472B
:103FA00010B502460B685C1C002C01D1106907E0BB
:103FB0001046083000E04068446824689C42FAD902
:103FC00044684C604C68A160886041600A61146874
:103FD000641C146010BD42684A6093688B609368EB
:103FE00059609160086103685B1C036070470000C2
:103FF00072B605480068401C03490860BFF34F8F44
:10400000BFF36F8F704700007400002008480068FD
:10401000002802D172B600BFFEE705480068401EC6
:104020000349086008460068002800D162B670475E
:104030007400002070B506463546002E35D0083D88
:104040002C461A49606809680840002801D0012000
:1040500000E00020002802D172B600BFFEE7206811
:10406000002801D1012000E00020002802D172B612
:1040700000BFFEE70D49606809680840002814D0B9
:104080002068002811D10949606809688843606088
:1040900000F086F80649606809684018044908601D
:1040A0002046FFF7DFFC00F0CFF970BD7000002064
:1040B0006800002010B57D21C90005480068FCF7A4
:1040C0004DF8401E034948610720086110BD0000FB
:1040D0005800002000E000E001200007034948608C
:1040E000BFF34F8FBFF36F8F7047000000ED00E00C
:1040F00070B504460025002C14D00D480068002837
:1041000001D1012000E00020002802D172B600BFDA
:10411000FEE700F045F800212046FFF707FB00F01E
:1041200093F90546002D01D1FFF7D6FF70BD0000C1
:10413000B00000201CB5134800210B4680220091DE
:10414000019011A1124800F0A1F80446012C0DD1F4
:1041500072B60020C0430F49086001200E49086074
:1041600000200E49086000F063F80AE0601C002897
:1041700001D0012000E00020002802D172B600BF6B
:10418000FEE71CBDAC00002049444C450000000087
:1041900045390008A8000020940000208C00002071
:1041A00002480068401C014908607047B0000020C8
:1041B0001A480068002803D00120194908602CE043
:1041C0000020174908601748016805E0002902D15E
:1041D00072B600BFFEE7491E14204843124A105829
:1041E000002801D1012000E000200028EED1142297
:1041F0004A430D4BD018426852684260024608326A
:104200004368934202D14268526842604268D26871
:10421000064B1A600348016000BF7047B0000020E1
:104220009C00002090000020D41100207800002085
:1042300010B50B48006AFF210904084308490862C9
:104240000846006AFF210906084305490862FFF78E
:1042500031FF002003490860FBF736FF002010BD46
:1042600000ED00E07400002010B5FBF741FF0446AC
:1042700000F04CF8002803D00120000702494860F4
:104280002046FBF739FF10BD00ED00E0FFB585B01B
:104290001746B800FFF748FC0646002E0BD0542006
:1042A000FFF742FC0446002C01D0266304E03046B0
:1042B000FFF7C0FE00E00024002C10D000220F9970
:1042C0000E986B4613C303923A46089B06990598CD
:1042D000FFF744FB2046FFF767FA012501E00025C0
:1042E000ED43284609B0F0BD06490968002901D10F
:1042F000012006E004490968002901D1022000E0FC
:104300000020704794000020B0000020F8B5002085
:10431000009042480068002872D141480068451C5E
:104320003F480560002D1CD13E4800680068002809
:1043300001D1012000E00020002802D172B600BFA8
:10434000FEE738480768384800683649086036484C
:10435000076036480068401C34490860FFF7B6FB28
:1043600000BF3348006885423DD300BF2D48006838
:104370000068002801D1012000E00020002804D0BE
:104380000020C0432A4908602CE026480068C06825
:10439000C4686668B54202D22548066022E0201D46
:1043A000FFF7DAFDA06A002803D020461830FFF797
:1043B000D3FD2049E06A0968884202D91D49E06AB4
:1043C00008601422E16A51431B4A8818211DFFF737
:1043D00002FE1A49E06A0968C96A8842C6D3012008
:1043E0000090C3E700BF15480068C06A1421484325
:1043F00011490858012801D90120009005E0FFE784
:104400000F480068401C0E4908600E4800680028EC
:1044100001D0012000900098F8BD0000B0000020FD
:104420008C0000207C00002080000020A0000020E4
:10443000A800002090000020D41100207800002067
:10444000980000209C00002070B50024002632480F
:104450000068002802D172B600BFFEE7FFF7C8FD72
:104460002D480068401E2C49086008460068002856
:104470004DD12A480068002849D022E02848C06869
:10448000C46820461830FFF767FD201DFFF764FD64
:104490002449E06A0968884202D92249E06A086032
:1044A0001422E16A5143204A8818211DFFF793FD29
:1044B0001E49E06A0968C96A884202D301201C4982
:1044C000086017480068002801D1012000E00020A2
:1044D0000028D3D0002C01D0FFF7F8FA1548056862
:1044E000002D0DD000BFFFF711FF002802D00120E2
:1044F0000F4908606D1E002DF5D100200D490860A0
:104500000B480068002802D00126FFF7E5FDFFF701
:104510007DFD304670BD0000B00000208800002006
:104520008812002090000020D41100207800002084
:104530009C00002098000020786D0008A922000847
:1045400000000000000000008000000000000000EB
:10455000000000000000000000000000000000005B
:1045600000100010001000100010001000000010DB
:1045700000000000002800280028000000000000C3
:10458000000000000000000000240024007C002443
:104590000048007C0048004800000000003800543B
:1045A000005000380014005400540038001000007F
:1045B0000020005400580030002800540014000867
:1045C00000000000001000280028001000340048FF
:1045D000004800340000000000100010001000002F
:1045E00000000000000000000000000000080010B3
:1045F00000200020002000200020002000100008E3
:10460000002000100008000800080008000800084A
:1046100000100020001000380010002800000000EA
:10462000000000000000000000000000001000106A
:10463000007C0010001000000000000000000000DE
:10464000000000000000000000000010001000103A
:104650000000000000000000000000380000000022
:10466000000000000000000000000000000000004A
:1046700000000010000000000008000800100010FA
:10468000001000100020002000000000003800444E
:10469000004400540044004400440038000000007E
:1046A000001000300050001000100010001000102A
:1046B000000000000038004400440004000800101E
:1046C0000020007C000000000038004400040018B6
:1046D0000004000400440038000000000008001836
:1046E000002800280048007C0008000800000000A6
:1046F000007C0040004000780004000400440038C2
:1047000000000000003800440040007800440044ED
:104710000044003800000000007C00040008001085
:10472000001000200020002000000000003800449D
:1047300000440038004400440044003800000000F9
:104740000038004400440044003C000400440038A9
:104750000000000000000000001000000000000049
:104760000000001000000000000000000000001029
:104770000000000000000010001000100000000009
:10478000000C003000400030000C00000000000071
:10479000000000000000007C0000007C0000000021
:1047A0000000000000000000006000180004001875
:1047B0000060000000000000003800440004000811
:1047C000001000100000001000000000003800443D
:1047D000004C0054005C0040004000380000000025
:1047E00000100028002800280028007C0044004415
:1047F00000000000007800440044007800440044B9
:1048000000440078000000000038004400400040F0
:1048100000400040004400380000000000700048E4
:1048200000440044004400440048007000000000C0
:10483000007C00400040007C004000400040007CC4
:1048400000000000007C0040004000780040004074
:1048500000400040000000000038004400400040DC
:10486000005C0044004400380000000000440044A4
:104870000044007C00440044004400440000000068
:104880000038001000100010001000100010003858
:104890000000000000040004000400040004000400
:1048A0000044003800000000004400480050006050
:1048B0000050004800480044000000000040004054
:1048C00000400040004000400040007C000000002C
:1048D0000044006C006C0054004400440044004458
:1048E0000000000000440064006400540054004CC8
:1048F000004C004400000000003800440044004424
:1049000000440044004400380000000000780044E7
:1049100000440044007800400040004000000000D7
:10492000003800440044004400440044005400386F
:10493000000400000078004400440044007800486F
:1049400000480044000000000038004400400030EF
:10495000000800040044003800000000007C001043
:1049600000100010001000100010001000000000E7
:104970000044004400440044004400440044003823
:1049800000000000004400440044002800280028E3
:1049900000100010000000000044004400540054C7
:1049A0000054006C0028002800000000004400288B
:1049B000002800100010002800280044000000001B
:1049C00000440044002800280010001000100010CF
:1049D00000000000007C000400080010001000200F
:1049E0000040007C000000000018001000100010C3
:1049F000001000100010001000100018002000200F
:104A00000010001000100010000800080000000056
:104A100000300010001000100010001000100010F6
:104A200000100030001000280028004400000000A2
:104A30000000000000000000000000000000000076
:104A40000000000000000000000000FE0020001038
:104A50000000000000000000000000000000000056
:104A60000000000000380044003C0044004C0034CA
:104A70000000000000400040005800640044004472
:104A800000640058000000000000000000380044EE
:104A90000040004000440038000000000004000412
:104AA0000034004C00440044004C0034000000007E
:104AB0000000000000380044007C00400044003842
:104AC00000000000000C0010007C0010001000101E
:104AD0000010001000000000000000000034004C36
:104AE00000440044004C00340004007800400040C2
:104AF00000580064004400440044004400000000EA
:104B000000100000007000100010001000100010D5
:104B100000000000001000000070001000100010E5
:104B200000100010001000E000400040004800505D
:104B300000600050004800440000000000700010B9
:104B40000010001000100010001000100000000005
:104B50000000000000780054005400540054005439
:104B60000000000000000000005800640044004401
:104B70000044004400000000000000000038004431
:104B80000044004400440038000000000000000021
:104B90000058006400440044006400580040004095
:104BA000000000000034004C00440044004C00347D
:104BB00000040004000000000058006400400040B1
:104BC00000400040000000000000000000380044E9
:104BD00000300008004400380000000000200020E1
:104BE00000780020002000200020001800000000B5
:104BF000000000000044004400440044004C003425
:104C000000000000000000000044004400280028CC
:104C100000280010000000000000000000540054B4
:104C20000054006C00280028000000000000000074
:104C3000004400280010001000280044000000007C
:104C4000000000000044004400280028001000106C
:104C50000010006000000000007C00080010002030
:104C60000040007C00000000001800100010001040
:104C7000002000200010001000100018001000108C
:104C800000100010001000100010001000100010A4
:104C90000030001000100010000800080010001084
:104CA000001000300000000000000074004C000004
:104CB00000000000000000000000000000000000F4
:104CC00000000000000000000000000000000000E4
:104CD0000000000000000000000000000000000CC8
:104CE000000C000C000C000C000C000C000C000C64
:104CF000000C000C0000000C000C00000000000084
:104D00000000001B001B001B001B001B000000001C
:104D10000000000000000000000000000000000093
:104D20000000000000008019801980198019C07FE0
:104D3000C07F80190033C07FC07F00330033003351
:104D400000330000000000000000001E003F8075DE
:104D500080650074003C001E00078005806580654A
:104D60008075003F001E0004000400000000007079
:104D700000D840D8C0D880D900730006000C801B32
:104D8000C036C066C046C0068003000000000000B8
:104D90000000001E003F003300330033001E000CF3
:104DA000C03CC066806380618063C03E801C0000A0
:104DB000000000000000000C000C000C000C000CB7
:104DC00000000000000000000000000000000000E3
:104DD0000000000000000000800000010003000649
:104DE00000060004000C000C000C000C000C000C71
:104DF00000040006000600030001800000200010EF
:104E00000018000C000C0004000600060006000656
:104E1000000600060004000C000C00180010002022
:104E20000000000C002D003F001E003300000000B9
:104E30000000000000000000000000000000000072
:104E400000000000000000000000000C000C000C3E
:104E5000000CC0FFC0FF000C000C000C000C000098
:104E60000000000000000000000000000000000042
:104E70000000000000000000000000000000000032
:104E80000000000C000C00040004000800000000FA
:104E90000000000000000000000000000000001EF4
:104EA000001E0000000000000000000000000000E4
:104EB00000000000000000000000000000000000F2
:104EC00000000000000000000000000C000C0000CA
:104ED00000000000000000030003000300060006BD
:104EE00000060006000C000C000C000C0018001856
:104EF00000180000000000000000001E003F00330A
:104F0000806180618061806D806D80618061806181
:104F10000033003F001E00000000000000000006FB
:104F2000000E001E003600260006000600060006E1
:104F30000006000600060006000600000000000053
:104F40000000001E003F80738061806180010003CB
:104F50000006000C001800300060807F807F000099
:104F6000000000000000001C003E0063006300031E
:104F7000000E000E00038001800180618073003FFD
:104F8000001E00000000000000000006000E000EE1
:104F9000001E001E0016003600360066807F807FEF
:104FA0000006000600060000000000000000007F70
:104FB000007F006000600060006E007F8063800101
:104FC000800180618073003F001E0000000000002F
:104FD0000000001E003F803380610060006E007F93
:104FE00080738061806180618033003F001E00001B
:104FF000000000000000807F807F8001000300032C
:1050000000060006000C000C000C00080018001838
:1050100000180000000000000000001E003F806338
:10502000806180610021001E003F8061806180619D
:105030008061003F001E0000000000000000001E14
:10504000003F00738061806180618073803F801DBC
:10505000800180610073003F001E0000000000001E
:1050600000000000000000000000000C000C000028
:1050700000000000000000000000000C000C000018
:105080000000000000000000000000000000000020
:10509000000C000C00000000000000000000000CEC
:1050A000000C0004000400080000000000000000E4
:1050B00080008003000E003800600038000E80037E
:1050C0008000000000000000000000000000000060
:1050D000000000000000807F807F00000000807FD3
:1050E000807F0000000000000000000000000000C1
:1050F000000000000000000000400070001C0007DD
:1051000080010007001C007000400000000000004B
:10511000000000000000001F803FC071C060C000A0
:10512000C00180030007000E000C000C0000000C02
:10513000000C0000000000000000001E003F803155
:1051400080718063806F806D806D806F806700608C
:105150000032003E001C0000000000000000000EB5
:10516000000E001B001B001B001B80318031803FA4
:10517000803F8031C060C060C0600000000000005F
:105180000000007C007E0063006300630063007E1B
:10519000007E0063806180618063007F007E00008C
:1051A000000000000000001E003F803180610060B0
:1051B0000060006000600060006080618031003F3E
:1051C000001E0000000000000000007C007F006363
:1051D0008063806180618061806180618061006343
:1051E0000063007E007C0000000000000000807F63
:1051F000807F0060006000600060007F007F0060D2
:10520000006000600060807F807F00000000000080
:105210000000807F807F0060006000600060007F91
:10522000007F0060006000600060006000600000BF
:10523000000000000000001E003F8031806100601F
:105240000060006080638063806180618031803FA6
:10525000001E00000000000000008061806180618D
:10526000806180618061807F807F806180618061FA
:105270008061806180610000000000000000003F4C
:10528000003F000C000C000C000C000C000C000C8B
:10529000000C000C000C003F003F0000000000006C
:1052A0000000800180018001800180018001800177
:1052B00080018001806180618073003F001E0000DA
:1052C000000000000000C0608061006300660066AE
:1052D000006C0078007C006600660063806180617D
:1052E000C06000000000000000000060006000607E
:1052F00000600060006000600060006000600060AE
:105300000060807F807F0000000000000000C0710E
:10531000C071C07BC07AC06AC06AC06EC064C06021
:10532000C060C060C060C060C060000000000000DD
:10533000000080718071807980798079806D806DC6
:10534000806D806580678067806780638063000010
:10535000000000000000001E003F003380618061FB
:105360008061806180618061806180610033003F85
:10537000001E0000000000000000007E007F80632F
:105380008061806180618063007F007E00600060DA
:105390000060006000600000000000000000001ECF
:1053A000003F003380618061806180618061806145
:1053B000806580670033803F401E000000000000D1
:1053C0000000007E007F8063806180618063007FD9
:1053D000007E00660063006380618061C060000041
:1053E000000000000000000E001F803180310030FE
:1053F0000038001E00078003806180618031003F1B
:10540000001E0000000000000000C0FFC0FF000CF4
:10541000000C000C000C000C000C000C000C000C2C
:10542000000C000C000C0000000000000000806177
:105430008061806180618061806180618061806164
:10544000806180618073003F001E0000000000004A
:105450000000C060C060C060803180318031001BBE
:10546000001B001B001B000E000E000E00040000BD
:10547000000000000000C0C0C0C0C0C0C0C0C0C0AC
:10548000C0CC804C804C805E8052805280738061A2
:1054900080610000000000000000C0C080608061EA
:1054A0000033003B001E000C000C001E001F003BE0
:1054B00080718061C0C00000000000000000C0C01A
:1054C0008061806100330033001E001E000C000C60
:1054D000000C000C000C000C000C00000000000090
:1054E0000000803F803F8001000300030006000CA5
:1054F000000C0018001800300060807F807F0000E2
:1055000000000000000F000F000C000C000C000C4D
:10551000000C000C000C000C000C000C000C000C2B
:10552000000C000C000F000F0000001800180018FD
:10553000000C000C000C000C000600060006000623
:10554000000300030003000000000000001E001E16
:10555000000600060006000600060006000600061B
:10556000000600060006000600060006001E001EDB
:105570000000000C000C001E00120033003380619C
:10558000806100000000000000000000000000003A
:10559000000000000000000000000000000000000B
:1055A00000000000000000000000000000000000FB
:1055B00000000000E0FF0000000000380018000CB0
:1055C00000000000000000000000000000000000DB
:1055D00000000000000000000000000000000000CB
:1055E000000000000000001F803F80618001801FDC
:1055F000803F80618063807FC03800000000000031
:1056000000000060006000600060006E007F80733A
:1056100080618061806180618073007F006E000026
:105620000000000000000000000000000000001E5C
:10563000003F807380610060006080618073003F84
:10564000001E0000000000000000800180018001B9
:105650008001801D803F80738061806180618061F6
:105660008073803F801D00000000000000000000EB
:10567000000000000000001E003F00738061807F7A
:10568000807F00608071003F001E0000000000006D
:105690000000C007C00F000C000C807F807F000C52
:1056A000000C000C000C000C000C000C000C0000A6
:1056B000000000000000000000000000801D803F8E
:1056C000807380618061806180618073803F801D14
:1056D00080018063007F003E000000600060006089
:1056E0000060006F807F8071806180618061806177
:1056F0008061806180610000000000000000000601
:10570000000600000000003E003E00060006000605
:10571000000600060006000600060000000000006B
:105720000006000600000000003E003E00060006E5
:1057300000060006000600060006000600060046F9
:10574000007E003C0000006000600060006080613E
:1057500000630066006C007C00760063006380617B
:10576000C0600000000000000000003E003E000697
:1057700000060006000600060006000600060006F9
:105780000006000600060000000000000000000007
:1057900000000000000080DDC0FFC0CEC0CCC0CC47
:1057A000C0CCC0CCC0CCC0CCC0CC0000000000003D
:1057B00000000000000000000000006F807F80718A
:1057C00080618061806180618061806180610000B2
:1057D0000000000000000000000000000000001EAB
:1057E000003F807380618061806180618073003FD1
:1057F000001E00000000000000000000000000008B
:10580000006E007F80738061806180618061807341
:10581000007F006E0060006000600060000000001B
:1058200000000000801D803F807380618061806186
:1058300080618073803F801D800180018001800134
:10584000000000000000000000000067803F0039F9
:1058500000300030003000300030003000300000F8
:105860000000000000000000000000000000001E1A
:10587000803F80610060007F803F80018061007F09
:10588000001E0000000000000000000000080018DA
:105890000018007F007F001800180018001800187A
:1058A0000018801F800F00000000000000000000B2
:1058B0000000000000008061806180618061806183
:1058C000806180618063807F803D00000000000077
:1058D00000000000000000000000C0608031803146
:1058E0008031001B001B001B000E000E0006000094
:1058F000000000000000000000000000000080DD4B
:1059000080DD80DD005500550055007700770022CE
:105910000022000000000000000000000000000065
:105920000000806100330033001E000C000C001EDC
:105930000033003380610000000000000000000020
:105940000000000080618061803100330033001B63
:10595000001B001B000E000E000E001C007C0070DF
:1059600000000000000000000000C07FC07F800138
:1059700000030006000C00180030C07FC07F00004C
:1059800000000000800380070006000600060006F5
:105990000006000E001C001C000E0006000600069B
:1059A00000060006800780030006000600060006C9
:1059B00000060006000600060006000600060006B7
:1059C0000006000600060006000600060038003C3F
:1059D000000C000C000C000C000C000E000700076F
:1059E000000E000C000C000C000C000C003C0038F9
:1059F00000000000000000000000000000008038EF
:105A0000807F004700000000000000000000000050
:105A10000000000000000000000000000000000086
:105A20000000000000000000000000000000000076
:105A30000000000000000000000000000000000066
:105A40000000000000000000E003E003E003E003CA
:105A5000E003E003E003E003C003C003C001C001B2
:105A6000C001C001C001000000000000E003E0032D
:105A7000E003000000000000000000003C1E3C1E8F
:105A80003C1E3C1E3C1E3C1E3C1E00000000000054
:105A90000000000000000000000000000000000006
:105AA00000000000000000000000000000000000F6
:105AB000CE01CE03DE039E039C039C07FF3FFF7FC6
:105AC0003807380F780F780F780EFFFFFFFFF01EB2
:105AD000F01CE01CE03CE03DE0390000000000006C
